{
  "contractName": "Wallet",
  "abi": [
    {
      "inputs": [
        {
          "internalType": "address[]",
          "name": "_approvers",
          "type": "address[]"
        },
        {
          "internalType": "uint256",
          "name": "_quoram",
          "type": "uint256"
        }
      ],
      "stateMutability": "nonpayable",
      "type": "constructor"
    },
    {
      "inputs": [
        {
          "internalType": "uint256",
          "name": "",
          "type": "uint256"
        }
      ],
      "name": "approvers",
      "outputs": [
        {
          "internalType": "address",
          "name": "",
          "type": "address"
        }
      ],
      "stateMutability": "view",
      "type": "function",
      "constant": true
    },
    {
      "inputs": [],
      "name": "quoram",
      "outputs": [
        {
          "internalType": "uint256",
          "name": "",
          "type": "uint256"
        }
      ],
      "stateMutability": "view",
      "type": "function",
      "constant": true
    },
    {
      "inputs": [
        {
          "internalType": "uint256",
          "name": "",
          "type": "uint256"
        }
      ],
      "name": "transfers",
      "outputs": [
        {
          "internalType": "uint256",
          "name": "id",
          "type": "uint256"
        },
        {
          "internalType": "uint256",
          "name": "amount",
          "type": "uint256"
        },
        {
          "internalType": "address payable",
          "name": "to",
          "type": "address"
        },
        {
          "internalType": "uint256",
          "name": "approvers",
          "type": "uint256"
        },
        {
          "internalType": "bool",
          "name": "sent",
          "type": "bool"
        }
      ],
      "stateMutability": "view",
      "type": "function",
      "constant": true
    },
    {
      "stateMutability": "payable",
      "type": "receive",
      "payable": true
    },
    {
      "inputs": [],
      "name": "getApprovers",
      "outputs": [
        {
          "internalType": "address[]",
          "name": "",
          "type": "address[]"
        }
      ],
      "stateMutability": "view",
      "type": "function",
      "constant": true
    },
    {
      "inputs": [],
      "name": "getTransfers",
      "outputs": [
        {
          "components": [
            {
              "internalType": "uint256",
              "name": "id",
              "type": "uint256"
            },
            {
              "internalType": "uint256",
              "name": "amount",
              "type": "uint256"
            },
            {
              "internalType": "address payable",
              "name": "to",
              "type": "address"
            },
            {
              "internalType": "uint256",
              "name": "approvers",
              "type": "uint256"
            },
            {
              "internalType": "bool",
              "name": "sent",
              "type": "bool"
            }
          ],
          "internalType": "struct Wallet.Transfer[]",
          "name": "",
          "type": "tuple[]"
        }
      ],
      "stateMutability": "view",
      "type": "function",
      "constant": true
    },
    {
      "inputs": [
        {
          "internalType": "address payable",
          "name": "to",
          "type": "address"
        },
        {
          "internalType": "uint256",
          "name": "amount",
          "type": "uint256"
        }
      ],
      "name": "createTransfer",
      "outputs": [],
      "stateMutability": "nonpayable",
      "type": "function"
    },
    {
      "inputs": [
        {
          "internalType": "uint256",
          "name": "id",
          "type": "uint256"
        }
      ],
      "name": "approveTransfer",
      "outputs": [],
      "stateMutability": "nonpayable",
      "type": "function"
    }
  ],
  "bytecode": "0x60806040523480156200001157600080fd5b5060405162001266380380620012668339818101604052620000379190810190620001ef565b81600090805190602001906200004f9291906200005f565b5080600181905550505062000312565b828054828255906000526020600020908101928215620000db579160200282015b82811115620000da5782518260006101000a81548173ffffffffffffffffffffffffffffffffffffffff021916908373ffffffffffffffffffffffffffffffffffffffff1602179055509160200191906001019062000080565b5b509050620000ea9190620000ee565b5090565b6200013191905b808211156200012d57600081816101000a81549073ffffffffffffffffffffffffffffffffffffffff021916905550600101620000f5565b5090565b90565b6000815190506200014581620002de565b92915050565b600082601f8301126200015d57600080fd5b8151620001746200016e8262000277565b62000249565b915081818352602084019350602081019050838560208402820111156200019a57600080fd5b60005b83811015620001ce5781620001b3888262000134565b8452602084019350602083019250506001810190506200019d565b5050505092915050565b600081519050620001e981620002f8565b92915050565b600080604083850312156200020357600080fd5b600083015167ffffffffffffffff8111156200021e57600080fd5b6200022c858286016200014b565b92505060206200023f85828601620001d8565b9150509250929050565b6000604051905081810181811067ffffffffffffffff821117156200026d57600080fd5b8060405250919050565b600067ffffffffffffffff8211156200028f57600080fd5b602082029050602081019050919050565b6000620002ad82620002b4565b9050919050565b600073ffffffffffffffffffffffffffffffffffffffff82169050919050565b6000819050919050565b620002e981620002a0565b8114620002f557600080fd5b50565b6200030381620002d4565b81146200030f57600080fd5b50565b610f4480620003226000396000f3fe6080604052600436106100745760003560e01c80636e6f951a1161004e5780636e6f951a146100ff5780639377d7111461012a578063cacca4a01461016b578063d3650fb8146101945761007b565b80632f65142c146100805780633ac172dd146100ab5780636cb3e8ef146100d45761007b565b3661007b57005b600080fd5b34801561008c57600080fd5b506100956101d1565b6040516100a29190610d13565b60405180910390f35b3480156100b757600080fd5b506100d260048036036100cd9190810190610999565b6102bf565b005b3480156100e057600080fd5b506100e9610499565b6040516100f69190610cf1565b60405180910390f35b34801561010b57600080fd5b50610114610527565b6040516101219190610d95565b60405180910390f35b34801561013657600080fd5b50610151600480360361014c91908101906109d5565b61052d565b604051610162959493929190610db0565b60405180910390f35b34801561017757600080fd5b50610192600480360361018d91908101906109d5565b61059d565b005b3480156101a057600080fd5b506101bb60048036036101b691908101906109d5565b610933565b6040516101c89190610cd6565b60405180910390f35b60606002805480602002602001604051908101604052809291908181526020016000905b828210156102b657838290600052602060002090600502016040518060a001604052908160008201548152602001600182015481526020016002820160009054906101000a900473ffffffffffffffffffffffffffffffffffffffff1673ffffffffffffffffffffffffffffffffffffffff1673ffffffffffffffffffffffffffffffffffffffff168152602001600382015481526020016004820160009054906101000a900460ff161515151581525050815260200190600101906101f5565b50505050905090565b600080905060008090505b600080549050811015610354573373ffffffffffffffffffffffffffffffffffffffff16600082815481106102fb57fe5b9060005260206000200160009054906101000a900473ffffffffffffffffffffffffffffffffffffffff1673ffffffffffffffffffffffffffffffffffffffff16141561034757600191505b80806001019150506102ca565b50600115158115151461039c576040517f08c379a000000000000000000000000000000000000000000000000000000000815260040161039390610d35565b60405180910390fd5b60026040518060a0016040528060028054905081526020018481526020018573ffffffffffffffffffffffffffffffffffffffff16815260200160008152602001600015158152509080600181540180825580915050600190039060005260206000209060050201600090919091909150600082015181600001556020820151816001015560408201518160020160006101000a81548173ffffffffffffffffffffffffffffffffffffffff021916908373ffffffffffffffffffffffffffffffffffffffff1602179055506060820151816003015560808201518160040160006101000a81548160ff0219169083151502179055505050505050565b6060600080548060200260200160405190810160405280929190818152602001828054801561051d57602002820191906000526020600020905b8160009054906101000a900473ffffffffffffffffffffffffffffffffffffffff1673ffffffffffffffffffffffffffffffffffffffff16815260200190600101908083116104d3575b5050505050905090565b60015481565b6002818154811061053a57fe5b90600052602060002090600502016000915090508060000154908060010154908060020160009054906101000a900473ffffffffffffffffffffffffffffffffffffffff16908060030154908060040160009054906101000a900460ff16905085565b600080905060008090505b600080549050811015610632573373ffffffffffffffffffffffffffffffffffffffff16600082815481106105d957fe5b9060005260206000200160009054906101000a900473ffffffffffffffffffffffffffffffffffffffff1673ffffffffffffffffffffffffffffffffffffffff16141561062557600191505b80806001019150506105a8565b50600115158115151461067a576040517f08c379a000000000000000000000000000000000000000000000000000000000815260040161067190610d35565b60405180910390fd5b600015156002838154811061068b57fe5b906000526020600020906005020160040160009054906101000a900460ff161515146106ec576040517f08c379a00000000000000000000000000000000000000000000000000000000081526004016106e390610d55565b60405180910390fd5b60001515600360003373ffffffffffffffffffffffffffffffffffffffff1673ffffffffffffffffffffffffffffffffffffffff168152602001908152602001600020600084815260200190815260200160002060009054906101000a900460ff16151514610790576040517f08c379a000000000000000000000000000000000000000000000000000000000815260040161078790610d75565b60405180910390fd5b6001600360003373ffffffffffffffffffffffffffffffffffffffff1673ffffffffffffffffffffffffffffffffffffffff168152602001908152602001600020600084815260200190815260200160002060006101000a81548160ff0219169083151502179055506002828154811061080657fe5b9060005260206000209060050201600301600081548092919060010191905055506001546002838154811061083757fe5b9060005260206000209060050201600301541061092f5760006002838154811061085d57fe5b906000526020600020906005020160020160009054906101000a900473ffffffffffffffffffffffffffffffffffffffff1690508073ffffffffffffffffffffffffffffffffffffffff166108fc600285815481106108b857fe5b9060005260206000209060050201600101549081150290604051600060405180830381858888f193505050501580156108f5573d6000803e3d6000fd5b5060016002848154811061090557fe5b906000526020600020906005020160040160006101000a81548160ff021916908315150217905550505b5050565b6000818154811061094057fe5b906000526020600020016000915054906101000a900473ffffffffffffffffffffffffffffffffffffffff1681565b60008135905061097e81610ee0565b92915050565b60008135905061099381610ef7565b92915050565b600080604083850312156109ac57600080fd5b60006109ba8582860161096f565b92505060206109cb85828601610984565b9150509250929050565b6000602082840312156109e757600080fd5b60006109f584828501610984565b91505092915050565b6000610a0a8383610a4c565b60208301905092915050565b6000610a228383610c50565b60a08301905092915050565b610a3781610e98565b82525050565b610a4681610e98565b82525050565b610a5581610e86565b82525050565b610a6481610e86565b82525050565b6000610a7582610e23565b610a7f8185610e53565b9350610a8a83610e03565b8060005b83811015610abb578151610aa288826109fe565b9750610aad83610e39565b925050600181019050610a8e565b5085935050505092915050565b6000610ad382610e2e565b610add8185610e64565b9350610ae883610e13565b8060005b83811015610b19578151610b008882610a16565b9750610b0b83610e46565b925050600181019050610aec565b5085935050505092915050565b610b2f81610eaa565b82525050565b610b3e81610eaa565b82525050565b6000610b51601683610e75565b91507f4f6e6c7920617070726f7665727320616c6c6f776564000000000000000000006000830152602082019050919050565b6000610b91602183610e75565b91507f5472616e73616374696f6e2068617320616c7265616479206265656e2073656e60008301527f74000000000000000000000000000000000000000000000000000000000000006020830152604082019050919050565b6000610bf7602483610e75565b91507f5472616e73616374696f6e2063616e6e6f7420626520617070726f766564207460008301527f77696365000000000000000000000000000000000000000000000000000000006020830152604082019050919050565b60a082016000820151610c666000850182610cb8565b506020820151610c796020850182610cb8565b506040820151610c8c6040850182610a2e565b506060820151610c9f6060850182610cb8565b506080820151610cb26080850182610b26565b50505050565b610cc181610ed6565b82525050565b610cd081610ed6565b82525050565b6000602082019050610ceb6000830184610a5b565b92915050565b60006020820190508181036000830152610d0b8184610a6a565b905092915050565b60006020820190508181036000830152610d2d8184610ac8565b905092915050565b60006020820190508181036000830152610d4e81610b44565b9050919050565b60006020820190508181036000830152610d6e81610b84565b9050919050565b60006020820190508181036000830152610d8e81610bea565b9050919050565b6000602082019050610daa6000830184610cc7565b92915050565b600060a082019050610dc56000830188610cc7565b610dd26020830187610cc7565b610ddf6040830186610a3d565b610dec6060830185610cc7565b610df96080830184610b35565b9695505050505050565b6000819050602082019050919050565b6000819050602082019050919050565b600081519050919050565b600081519050919050565b6000602082019050919050565b6000602082019050919050565b600082825260208201905092915050565b600082825260208201905092915050565b600082825260208201905092915050565b6000610e9182610eb6565b9050919050565b6000610ea382610eb6565b9050919050565b60008115159050919050565b600073ffffffffffffffffffffffffffffffffffffffff82169050919050565b6000819050919050565b610ee981610e98565b8114610ef457600080fd5b50565b610f0081610ed6565b8114610f0b57600080fd5b5056fea2646970667358221220a720cd91fb3461370a25ff26d4f4a86b07e55f88c923a05ac1c50fa4156d0cd664736f6c63430006000033",
  "source": "pragma solidity 0.6.0;\r\npragma experimental ABIEncoderV2;\r\n\r\ncontract Wallet{\r\n   \r\n   address[] public approvers;\r\n   uint public quoram;\r\n   \r\n   struct Transfer{\r\n       uint id;\r\n       uint amount;\r\n       address payable to;\r\n       uint approvers;\r\n       bool sent;\r\n   }\r\n\r\n   Transfer[] public transfers;\r\n  \r\n\r\n   mapping(address=>mapping(uint=>bool)) approvals;\r\n   \r\n    constructor(address[] memory  _approvers, uint _quoram) public{\r\n        approvers=_approvers;\r\n        quoram=_quoram;\r\n\r\n    } \r\n    function getApprovers() external view returns(address[] memory){\r\n        return approvers;\r\n    }\r\n\r\n    function getTransfers() external view returns(Transfer[] memory){\r\n        return transfers;\r\n    }\r\n\r\n    function createTransfer(address payable to, uint amount) external onlyApprover{\r\n        transfers.push(Transfer(\r\n            transfers.length,\r\n            amount,\r\n            to,\r\n            0,\r\n            false\r\n            ));\r\n    }\r\n\r\n    function approveTransfer(uint id) external onlyApprover{\r\n        require(transfers[id].sent==false, \"Transaction has already been sent\");\r\n        require(approvals[msg.sender][id]==false,\"Transaction cannot be approved twice\");\r\n        \r\n        //approve Transaction\r\n        approvals[msg.sender][id]=true;\r\n        transfers[id].approvers++;\r\n\r\n        if(transfers[id].approvers>=quoram){\r\n            address payable to=transfers[id].to;\r\n            to.transfer(transfers[id].amount);\r\n\r\n            transfers[id].sent=true;\r\n\r\n        }\r\n        \r\n    }\r\n\r\n    receive() external payable{\r\n\r\n    }\r\n\r\n//atleast one of the approvers should be the one who calls the contract\r\n    modifier onlyApprover(){\r\n        bool allowed=false;\r\n        for(uint i=0; i<approvers.length;i++){\r\n            if(approvers[i]==msg.sender){\r\n            allowed=true;\r\n        }\r\n\r\n    }\r\n    require(allowed==true,\"Only approvers allowed\");\r\n    _;\r\n}\r\n}",
  "sourcePath": "C:\\Users\\shrey\\Documents\\blockchain\\wallet\\contracts\\Wallet.sol",
  "compiler": {
    "name": "solc",
    "version": "0.6.0+commit.26b70077.Emscripten.clang"
  },
  "schemaVersion": "3.4.4",
  "updatedAt": "2022-01-14T06:35:15.944Z",
  "networkType": "ethereum",
  "devdoc": {
    "methods": {}
  },
  "userdoc": {
    "methods": {}
  }
}